{
  "abi": [
    {
      "inputs": [
        {
          "internalType": "address",
          "name": "_owner",
          "type": "address"
        },
        {
          "internalType": "address",
          "name": "_erc20Token",
          "type": "address"
        },
        {
          "internalType": "address",
          "name": "_stablecoin",
          "type": "address"
        },
        {
          "internalType": "address",
          "name": "_priceFeed",
          "type": "address"
        },
        {
          "internalType": "address",
          "name": "_uniswapRouter",
          "type": "address"
        },
        {
          "internalType": "uint256",
          "name": "_trailAmount",
          "type": "uint256"
        },
        {
          "internalType": "uint256",
          "name": "granularity",
          "type": "uint256"
        }
      ],
      "stateMutability": "nonpayable",
      "type": "constructor"
    },
    {
      "inputs": [],
      "name": "InvalidAmount",
      "type": "error"
    },
    {
      "inputs": [],
      "name": "ReentrancyGuardReentrantCall",
      "type": "error"
    },
    {
      "inputs": [],
      "name": "TransferFailed",
      "type": "error"
    },
    {
      "anonymous": false,
      "inputs": [
        {
          "indexed": true,
          "internalType": "address",
          "name": "user",
          "type": "address"
        },
        {
          "indexed": false,
          "internalType": "uint256",
          "name": "amount",
          "type": "uint256"
        }
      ],
      "name": "Deposit",
      "type": "event"
    },
    {
      "anonymous": false,
      "inputs": [
        {
          "indexed": false,
          "internalType": "uint256",
          "name": "amountIn",
          "type": "uint256"
        },
        {
          "indexed": false,
          "internalType": "uint256",
          "name": "amountOut",
          "type": "uint256"
        }
      ],
      "name": "SwapExecuted",
      "type": "event"
    },
    {
      "anonymous": false,
      "inputs": [
        {
          "indexed": false,
          "internalType": "uint256",
          "name": "newThreshold",
          "type": "uint256"
        }
      ],
      "name": "TSLUpdated",
      "type": "event"
    },
    {
      "anonymous": false,
      "inputs": [
        {
          "indexed": true,
          "internalType": "address",
          "name": "user",
          "type": "address"
        },
        {
          "indexed": false,
          "internalType": "uint256",
          "name": "amount",
          "type": "uint256"
        }
      ],
      "name": "Withdraw",
      "type": "event"
    },
    {
      "inputs": [],
      "name": "activateSlippageProtection",
      "outputs": [],
      "stateMutability": "nonpayable",
      "type": "function"
    },
    {
      "inputs": [
        {
          "internalType": "bytes",
          "name": "",
          "type": "bytes"
        }
      ],
      "name": "checkUpkeep",
      "outputs": [
        {
          "internalType": "bool",
          "name": "upkeepNeeded",
          "type": "bool"
        },
        {
          "internalType": "bytes",
          "name": "performData",
          "type": "bytes"
        }
      ],
      "stateMutability": "view",
      "type": "function"
    },
    {
      "inputs": [
        {
          "internalType": "uint256",
          "name": "amount",
          "type": "uint256"
        },
        {
          "internalType": "uint256",
          "name": "tslThreshold",
          "type": "uint256"
        }
      ],
      "name": "deposit",
      "outputs": [],
      "stateMutability": "nonpayable",
      "type": "function"
    },
    {
      "inputs": [],
      "name": "getERC20Balance",
      "outputs": [
        {
          "internalType": "uint256",
          "name": "",
          "type": "uint256"
        }
      ],
      "stateMutability": "view",
      "type": "function"
    },
    {
      "inputs": [],
      "name": "getERC20TokenAddress",
      "outputs": [
        {
          "internalType": "address",
          "name": "",
          "type": "address"
        }
      ],
      "stateMutability": "view",
      "type": "function"
    },
    {
      "inputs": [],
      "name": "getGranularity",
      "outputs": [
        {
          "internalType": "uint256",
          "name": "",
          "type": "uint256"
        }
      ],
      "stateMutability": "view",
      "type": "function"
    },
    {
      "inputs": [],
      "name": "getLatestPrice",
      "outputs": [
        {
          "internalType": "uint256",
          "name": "",
          "type": "uint256"
        }
      ],
      "stateMutability": "view",
      "type": "function"
    },
    {
      "inputs": [],
      "name": "getOwner",
      "outputs": [
        {
          "internalType": "address",
          "name": "",
          "type": "address"
        }
      ],
      "stateMutability": "view",
      "type": "function"
    },
    {
      "inputs": [],
      "name": "getPriceFeedAddress",
      "outputs": [
        {
          "internalType": "address",
          "name": "",
          "type": "address"
        }
      ],
      "stateMutability": "view",
      "type": "function"
    },
    {
      "inputs": [],
      "name": "getStablecoinAddress",
      "outputs": [
        {
          "internalType": "address",
          "name": "",
          "type": "address"
        }
      ],
      "stateMutability": "view",
      "type": "function"
    },
    {
      "inputs": [],
      "name": "getStablecoinBalance",
      "outputs": [
        {
          "internalType": "uint256",
          "name": "",
          "type": "uint256"
        }
      ],
      "stateMutability": "view",
      "type": "function"
    },
    {
      "inputs": [],
      "name": "getTSLThreshold",
      "outputs": [
        {
          "internalType": "uint256",
          "name": "",
          "type": "uint256"
        }
      ],
      "stateMutability": "view",
      "type": "function"
    },
    {
      "inputs": [],
      "name": "getTrailAmount",
      "outputs": [
        {
          "internalType": "uint256",
          "name": "",
          "type": "uint256"
        }
      ],
      "stateMutability": "view",
      "type": "function"
    },
    {
      "inputs": [],
      "name": "getUniswapRouterAddress",
      "outputs": [
        {
          "internalType": "address",
          "name": "",
          "type": "address"
        }
      ],
      "stateMutability": "view",
      "type": "function"
    },
    {
      "inputs": [],
      "name": "isTSLActive",
      "outputs": [
        {
          "internalType": "bool",
          "name": "",
          "type": "bool"
        }
      ],
      "stateMutability": "view",
      "type": "function"
    },
    {
      "inputs": [
        {
          "internalType": "bytes",
          "name": "performData",
          "type": "bytes"
        }
      ],
      "name": "performUpkeep",
      "outputs": [],
      "stateMutability": "nonpayable",
      "type": "function"
    },
    {
      "inputs": [
        {
          "internalType": "uint256",
          "name": "amount",
          "type": "uint256"
        }
      ],
      "name": "swapToStablecoin",
      "outputs": [],
      "stateMutability": "nonpayable",
      "type": "function"
    },
    {
      "inputs": [],
      "name": "withdraw",
      "outputs": [],
      "stateMutability": "nonpayable",
      "type": "function"
    }
  ],
  "bytecode": {
    "object": "0x60c06040523480156200001157600080fd5b50604051620012cf380380620012cf8339810160408190526200003491620000c9565b600160008190556001600160a01b0397881660805280549688166001600160a01b03199788161790556002805495881695871695909517909455600480549387169386169390931790925560038054919095169316929092179092556009805460a09290925261ffff1990911690556008556200014c565b80516001600160a01b0381168114620000c457600080fd5b919050565b600080600080600080600060e0888a031215620000e557600080fd5b620000f088620000ac565b96506200010060208901620000ac565b95506200011060408901620000ac565b94506200012060608901620000ac565b93506200013060808901620000ac565b925060a0880151915060c0880151905092959891949750929550565b60805160a05161111e620001b16000396000818161022801528181610732015281816107c10152610ad70152600081816101ea01528181610532015281816105be01528181610621015281816106530152818161095c01526109b5015261111e6000f3fe608060405234801561001057600080fd5b50600436106101165760003560e01c80637bef4f54116100a2578063c3736fe611610071578063c3736fe61461021e578063c612a80814610226578063d39ac0cb1461024c578063e2bbb1581461025d578063f9a19e541461027057600080fd5b80637bef4f54146101d7578063893d20e8146101e85780638e15f4731461020e5780639f82e5411461021657600080fd5b80634585e33b116100e95780634585e33b14610174578063624aa0fd14610187578063666468d51461019857806368e6ea75146101ae5780636e04ff0d146101b657600080fd5b806305185f3c1461011b5780630f0f30b2146101305780633ccfd60b1461015a5780634096c91c14610162575b600080fd5b61012e610129366004610cf3565b610278565b005b6004546001600160a01b03165b6040516001600160a01b0390911681526020015b60405180910390f35b61012e610527565b6008545b604051908152602001610151565b61012e610182366004610d0c565b6106b7565b6001546001600160a01b031661013d565b60095460ff166040519015158152602001610151565b600754610166565b6101c96101c4366004610d0c565b610703565b604051610151929190610da2565b6002546001600160a01b031661013d565b7f000000000000000000000000000000000000000000000000000000000000000061013d565b610166610847565b61012e610951565b600654610166565b7f0000000000000000000000000000000000000000000000000000000000000000610166565b6003546001600160a01b031661013d565b61012e61026b366004610dde565b6109aa565b600554610166565b610280610b95565b600061028a610847565b600954909150600090610100900460ff16156102c85760646102ac8385610e16565b6102b7906062610e16565b6102c19190610e33565b90506102cc565b5060005b60015460035460405163095ea7b360e01b81526001600160a01b0391821660048201526024810186905291169063095ea7b3906044016020604051808303816000875af1158015610321573d6000803e3d6000fd5b505050506040513d601f19601f820116820180604052508101906103459190610e63565b5082600660008282546103589190610e87565b909155505060408051610100810182526001546001600160a01b039081168252600254811660208301908152610bb88385019081523060608501908152426080860190815260a086018a815260c08701898152600060e08901908152600354995163414bf38960e01b8152895189166004820152965188166024880152945162ffffff166044870152925186166064860152905160848501525160a48401525160c483015251821660e48201529192169063414bf38990610104016020604051808303816000875af1158015610432573d6000803e3d6000fd5b505050506040513d601f19601f820116820180604052508101906104569190610e9a565b506002546040516370a0823160e01b81523060048201526000916001600160a01b0316906370a0823190602401602060405180830381865afa1580156104a0573d6000803e3d6000fd5b505050506040513d601f19601f820116820180604052508101906104c49190610e9a565b905080600760008282546104d89190610eb3565b909155505060408051868152602081018390527f4f73e5828387c436ef01a51b03853873e76d7a5551556837d452cbeb6f285cb5910160405180910390a1505050506105246001600055565b50565b336001600160a01b037f000000000000000000000000000000000000000000000000000000000000000016146105785760405162461bcd60e51b815260040161056f90610ec6565b60405180910390fd5b60095460009060ff166105e85750600754806105a75760405163162908e360e11b815260040160405180910390fd5b60006007556002546105e3906001600160a01b03167f000000000000000000000000000000000000000000000000000000000000000083610bbf565b610651565b506006548061060a5760405163162908e360e11b815260040160405180910390fd5b6000600655600154610646906001600160a01b03167f000000000000000000000000000000000000000000000000000000000000000083610bbf565b6009805460ff191690555b7f00000000000000000000000000000000000000000000000000000000000000006001600160a01b03167f884edad9ce6fa2440d8a54cc123490eb96d2768479d49ff9c7366125a9424364826040516106ac91815260200190565b60405180910390a250565b600080806106c784860186610eed565b92509250925082156106ed576106de600654610278565b6009805460ff191690556106fc565b81156106fc576106fc81610cb8565b5050505050565b60095460009060609060ff1661071c5760009150610840565b6000610726610847565b905060008080806107587f00000000000000000000000000000000000000000000000000000000000000006064610e87565b600554610766906064610e16565b6107709190610e33565b90506000606460085460646107859190610eb3565b61078f9084610e16565b6107999190610e33565b90506005548610156107ae57600194506107fd565b808611156107fd576001935060646107e67f000000000000000000000000000000000000000000000000000000000000000082610e87565b6107f09088610e16565b6107fa9190610e33565b92505b6040805186151560208201528515159181019190915260608101849052608001604051602081830303815290604052965084806108375750835b97505050505050505b9250929050565b6004805460408051633fabe5a360e21b8152905160009384936001600160a01b03169263feaf968c928183019260a0928290030181865afa158015610890573d6000803e3d6000fd5b505050506040513d601f19601f820116820180604052508101906108b49190610f4d565b5050600480546040805163313ce56760e01b81529051949650600095506001600160a01b039091169363313ce5679350818301926020928290030181865afa158015610904573d6000803e3d6000fd5b505050506040513d601f19601f820116820180604052508101906109289190610f9d565b9050610935816012610fc0565b61094090600a6110bd565b61094a9083610e16565b9250505090565b336001600160a01b037f000000000000000000000000000000000000000000000000000000000000000016146109995760405162461bcd60e51b815260040161056f90610ec6565b6009805461ff001916610100179055565b336001600160a01b037f000000000000000000000000000000000000000000000000000000000000000016146109f25760405162461bcd60e51b815260040161056f90610ec6565b60008211610a135760405163162908e360e11b815260040160405180910390fd5b6001546040516323b872dd60e01b8152336004820152306024820152604481018490526000916001600160a01b0316906323b872dd906064016020604051808303816000875af1158015610a6b573d6000803e3d6000fd5b505050506040513d601f19601f82011682018060405250810190610a8f9190610e63565b905080610aaf576040516312171d8360e31b815260040160405180910390fd5b8260066000828254610ac19190610eb3565b909155505060095460ff16610b5b576064610afc7f000000000000000000000000000000000000000000000000000000000000000082610e87565b610b069084610e16565b610b109190610e33565b6005556009805460ff191660011790556040517f41014dd0d0cd650b4f277b0c5d1b402ad42a626de35ddc90a83a8200ba5e3aee90610b529084815260200190565b60405180910390a15b60405183815233907fe1fffcc4923d04b559f4d29a8bfc6cda04eb5b0d3c460751c2402c5c5cc9109c9060200160405180910390a2505050565b600260005403610bb857604051633ee5aeb560e01b815260040160405180910390fd5b6002600055565b604080516001600160a01b038481166024830152604480830185905283518084039091018152606490920183526020820180516001600160e01b031663a9059cbb60e01b1790529151600092839290871691610c1b91906110cc565b6000604051808303816000865af19150503d8060008114610c58576040519150601f19603f3d011682016040523d82523d6000602084013e610c5d565b606091505b5091509150818015610c87575080511580610c87575080806020019051810190610c879190610e63565b6106fc5760405162461bcd60e51b815260206004820152600260248201526114d560f21b604482015260640161056f565b60058190556040518181527f41014dd0d0cd650b4f277b0c5d1b402ad42a626de35ddc90a83a8200ba5e3aee9060200160405180910390a150565b600060208284031215610d0557600080fd5b5035919050565b60008060208385031215610d1f57600080fd5b823567ffffffffffffffff80821115610d3757600080fd5b818501915085601f830112610d4b57600080fd5b813581811115610d5a57600080fd5b866020828501011115610d6c57600080fd5b60209290920196919550909350505050565b60005b83811015610d99578181015183820152602001610d81565b50506000910152565b82151581526040602082015260008251806040840152610dc9816060850160208701610d7e565b601f01601f1916919091016060019392505050565b60008060408385031215610df157600080fd5b50508035926020909101359150565b634e487b7160e01b600052601160045260246000fd5b8082028115828204841417610e2d57610e2d610e00565b92915050565b600082610e5057634e487b7160e01b600052601260045260246000fd5b500490565b801515811461052457600080fd5b600060208284031215610e7557600080fd5b8151610e8081610e55565b9392505050565b81810381811115610e2d57610e2d610e00565b600060208284031215610eac57600080fd5b5051919050565b80820180821115610e2d57610e2d610e00565b6020808252600d908201526c2737ba103a34329037bbb732b960991b604082015260600190565b600080600060608486031215610f0257600080fd5b8335610f0d81610e55565b92506020840135610f1d81610e55565b929592945050506040919091013590565b805169ffffffffffffffffffff81168114610f4857600080fd5b919050565b600080600080600060a08688031215610f6557600080fd5b610f6e86610f2e565b9450602086015193506040860151925060608601519150610f9160808701610f2e565b90509295509295909350565b600060208284031215610faf57600080fd5b815160ff81168114610e8057600080fd5b60ff8281168282160390811115610e2d57610e2d610e00565b600181815b80851115611014578160001904821115610ffa57610ffa610e00565b8085161561100757918102915b93841c9390800290610fde565b509250929050565b60008261102b57506001610e2d565b8161103857506000610e2d565b816001811461104e576002811461105857611074565b6001915050610e2d565b60ff84111561106957611069610e00565b50506001821b610e2d565b5060208310610133831016604e8410600b8410161715611097575081810a610e2d565b6110a18383610fd9565b80600019048211156110b5576110b5610e00565b029392505050565b6000610e8060ff84168361101c565b600082516110de818460208701610d7e565b919091019291505056fea2646970667358221220d90b76d0fde5183c72794d85cda6e17a29e0937123db0279492f986db04b99c464736f6c63430008140033",
    "linkReferences": {}
  },
  "methodIdentifiers": {
    "activateSlippageProtection()": "9f82e541",
    "checkUpkeep(bytes)": "6e04ff0d",
    "deposit(uint256,uint256)": "e2bbb158",
    "getERC20Balance()": "c3736fe6",
    "getERC20TokenAddress()": "624aa0fd",
    "getGranularity()": "4096c91c",
    "getLatestPrice()": "8e15f473",
    "getOwner()": "893d20e8",
    "getPriceFeedAddress()": "0f0f30b2",
    "getStablecoinAddress()": "7bef4f54",
    "getStablecoinBalance()": "68e6ea75",
    "getTSLThreshold()": "f9a19e54",
    "getTrailAmount()": "c612a808",
    "getUniswapRouterAddress()": "d39ac0cb",
    "isTSLActive()": "666468d5",
    "performUpkeep(bytes)": "4585e33b",
    "swapToStablecoin(uint256)": "05185f3c",
    "withdraw()": "3ccfd60b"
  },
  "id": 0
}